{
  "contractName": "Project",
  "abi": [
    {
      "inputs": [],
      "stateMutability": "nonpayable",
      "type": "constructor"
    },
    {
      "anonymous": false,
      "inputs": [
        {
          "indexed": true,
          "internalType": "address",
          "name": "owner",
          "type": "address"
        },
        {
          "indexed": true,
          "internalType": "address",
          "name": "dev",
          "type": "address"
        },
        {
          "indexed": true,
          "internalType": "uint256",
          "name": "job_id",
          "type": "uint256"
        }
      ],
      "name": "JobCreated",
      "type": "event"
    },
    {
      "anonymous": false,
      "inputs": [
        {
          "indexed": true,
          "internalType": "address",
          "name": "owner",
          "type": "address"
        },
        {
          "indexed": true,
          "internalType": "address",
          "name": "dev",
          "type": "address"
        },
        {
          "indexed": true,
          "internalType": "uint256",
          "name": "job_id",
          "type": "uint256"
        }
      ],
      "name": "JobFinished",
      "type": "event"
    },
    {
      "inputs": [],
      "name": "denominator",
      "outputs": [
        {
          "internalType": "uint256",
          "name": "",
          "type": "uint256"
        }
      ],
      "stateMutability": "view",
      "type": "function"
    },
    {
      "inputs": [
        {
          "internalType": "uint256",
          "name": "",
          "type": "uint256"
        }
      ],
      "name": "jobs",
      "outputs": [
        {
          "internalType": "address",
          "name": "owner",
          "type": "address"
        },
        {
          "internalType": "address",
          "name": "dev",
          "type": "address"
        },
        {
          "internalType": "uint256",
          "name": "paymentAmount",
          "type": "uint256"
        },
        {
          "internalType": "uint256",
          "name": "deadline",
          "type": "uint256"
        },
        {
          "internalType": "bool",
          "name": "onTime",
          "type": "bool"
        },
        {
          "internalType": "bool",
          "name": "completed",
          "type": "bool"
        },
        {
          "internalType": "bool",
          "name": "payed",
          "type": "bool"
        },
        {
          "internalType": "bool",
          "name": "owner_rejected",
          "type": "bool"
        },
        {
          "internalType": "bool",
          "name": "dev_rejected",
          "type": "bool"
        }
      ],
      "stateMutability": "view",
      "type": "function"
    },
    {
      "inputs": [],
      "name": "lateFee",
      "outputs": [
        {
          "internalType": "uint256",
          "name": "",
          "type": "uint256"
        }
      ],
      "stateMutability": "view",
      "type": "function"
    },
    {
      "inputs": [],
      "name": "platformFee",
      "outputs": [
        {
          "internalType": "uint256",
          "name": "",
          "type": "uint256"
        }
      ],
      "stateMutability": "view",
      "type": "function"
    },
    {
      "inputs": [],
      "name": "totalFees",
      "outputs": [
        {
          "internalType": "uint256",
          "name": "",
          "type": "uint256"
        }
      ],
      "stateMutability": "view",
      "type": "function"
    },
    {
      "inputs": [],
      "name": "totalJobs",
      "outputs": [
        {
          "internalType": "uint256",
          "name": "",
          "type": "uint256"
        }
      ],
      "stateMutability": "view",
      "type": "function"
    },
    {
      "inputs": [
        {
          "internalType": "address",
          "name": "_dev",
          "type": "address"
        },
        {
          "internalType": "uint256",
          "name": "_deadline",
          "type": "uint256"
        }
      ],
      "name": "createJob",
      "outputs": [],
      "stateMutability": "payable",
      "type": "function"
    },
    {
      "inputs": [
        {
          "internalType": "uint256",
          "name": "_job",
          "type": "uint256"
        }
      ],
      "name": "completeJob",
      "outputs": [],
      "stateMutability": "nonpayable",
      "type": "function"
    },
    {
      "inputs": [
        {
          "internalType": "uint256",
          "name": "_job",
          "type": "uint256"
        }
      ],
      "name": "verifyCompletion",
      "outputs": [],
      "stateMutability": "nonpayable",
      "type": "function"
    },
    {
      "inputs": [
        {
          "internalType": "uint256",
          "name": "_job",
          "type": "uint256"
        }
      ],
      "name": "cancelJob",
      "outputs": [],
      "stateMutability": "nonpayable",
      "type": "function"
    },
    {
      "inputs": [
        {
          "internalType": "uint256",
          "name": "_deadline",
          "type": "uint256"
        },
        {
          "internalType": "uint256",
          "name": "_job",
          "type": "uint256"
        }
      ],
      "name": "extendDeadline",
      "outputs": [],
      "stateMutability": "nonpayable",
      "type": "function"
    },
    {
      "inputs": [],
      "name": "collectFees",
      "outputs": [],
      "stateMutability": "nonpayable",
      "type": "function"
    }
  ],
  "bytecode": "0x60a0604052603260025560646003556103e86080908152506000600560146101000a81548160ff02191690831515021790555034801561003e57600080fd5b5033600560006101000a81548173ffffffffffffffffffffffffffffffffffffffff021916908373ffffffffffffffffffffffffffffffffffffffff160217905550608051611e766100d3600039600081816104e50152818161050901528181610c44015281816111760152818161119a015281816111f2015281816112160152818161132201526113460152611e766000f3fe6080604052600436106100a75760003560e01c80633f2a66f8116100645780633f2a66f8146101c45780633f4de62f146101e057806396ce07951461020b578063a1c0d32f14610236578063c87965721461025f578063ccdef11014610276576100a7565b806313114a9d146100ac578063180aedf3146100d75780631ace87b31461011c5780631dffa3dc1461014757806326232a2e146101705780632d1fdef61461019b575b600080fd5b3480156100b857600080fd5b506100c161029f565b6040516100ce9190611561565b60405180910390f35b3480156100e357600080fd5b506100fe60048036038101906100f991906115ad565b6102a5565b60405161011399989796959493929190611636565b60405180910390f35b34801561012857600080fd5b50610131610374565b60405161013e9190611561565b60405180910390f35b34801561015357600080fd5b5061016e600480360381019061016991906115ad565b61037a565b005b34801561017c57600080fd5b50610185610806565b6040516101929190611561565b60405180910390f35b3480156101a757600080fd5b506101c260048036038101906101bd91906116c3565b61080c565b005b6101de60048036038101906101d9919061172f565b610969565b005b3480156101ec57600080fd5b506101f5610c3c565b6040516102029190611561565b60405180910390f35b34801561021757600080fd5b50610220610c42565b60405161022d9190611561565b60405180910390f35b34801561024257600080fd5b5061025d600480360381019061025891906115ad565b610c66565b005b34801561026b57600080fd5b50610274610e51565b005b34801561028257600080fd5b5061029d600480360381019061029891906115ad565b610fd5565b005b60015481565b60046020528060005260406000206000915090508060000160009054906101000a900473ffffffffffffffffffffffffffffffffffffffff16908060010160009054906101000a900473ffffffffffffffffffffffffffffffffffffffff16908060020154908060030154908060040160009054906101000a900460ff16908060040160019054906101000a900460ff16908060040160029054906101000a900460ff16908060040160039054906101000a900460ff16908060040160049054906101000a900460ff16905089565b60005481565b600560149054906101000a900460ff16156103ca576040517f08c379a00000000000000000000000000000000000000000000000000000000081526004016103c1906117cc565b60405180910390fd5b6001600560146101000a81548160ff0219169083151502179055506004600082815260200190815260200160002060040160029054906101000a900460ff1615610449576040517f08c379a000000000000000000000000000000000000000000000000000000000815260040161044090611838565b60405180910390fd5b6004600082815260200190815260200160002060000160009054906101000a900473ffffffffffffffffffffffffffffffffffffffff1673ffffffffffffffffffffffffffffffffffffffff163373ffffffffffffffffffffffffffffffffffffffff160361064c5760016004600083815260200190815260200160002060040160036101000a81548160ff02191690831515021790555060007f00000000000000000000000000000000000000000000000000000000000000006002547f00000000000000000000000000000000000000000000000000000000000000006105329190611887565b600460008581526020019081526020016000206002015461055391906118bb565b61055d919061192c565b90508060016000828254610571919061195d565b9250508190555060016004600084815260200190815260200160002060040160026101000a81548160ff02191690831515021790555060006004600084815260200190815260200160002060000160009054906101000a900473ffffffffffffffffffffffffffffffffffffffff1673ffffffffffffffffffffffffffffffffffffffff166108fc83600460008781526020019081526020016000206002015461061b9190611887565b9081150290604051600060405180830381858888f1935050505090508061064557610644611991565b5b50506107e8565b6004600082815260200190815260200160002060010160009054906101000a900473ffffffffffffffffffffffffffffffffffffffff1673ffffffffffffffffffffffffffffffffffffffff163373ffffffffffffffffffffffffffffffffffffffff16036107ac5760016004600083815260200190815260200160002060040160046101000a81548160ff02191690831515021790555060016004600083815260200190815260200160002060040160026101000a81548160ff02191690831515021790555060006004600083815260200190815260200160002060000160009054906101000a900473ffffffffffffffffffffffffffffffffffffffff1673ffffffffffffffffffffffffffffffffffffffff166108fc60046000858152602001908152602001600020600201549081150290604051600060405180830381858888f193505050509050806107a6576107a5611991565b5b506107e7565b6040517f08c379a00000000000000000000000000000000000000000000000000000000081526004016107de90611a0c565b60405180910390fd5b5b6000600560146101000a81548160ff02191690831515021790555050565b60025481565b6004600082815260200190815260200160002060000160009054906101000a900473ffffffffffffffffffffffffffffffffffffffff1673ffffffffffffffffffffffffffffffffffffffff163373ffffffffffffffffffffffffffffffffffffffff16146108b0576040517f08c379a00000000000000000000000000000000000000000000000000000000081526004016108a790611a78565b60405180910390fd5b4282116108f2576040517f08c379a00000000000000000000000000000000000000000000000000000000081526004016108e990611ae4565b60405180910390fd5b8160046000838152602001908152602001600020600301541061094a576040517f08c379a000000000000000000000000000000000000000000000000000000000815260040161094190611b50565b60405180910390fd5b8160046000838152602001908152602001600020600301819055505050565b600560149054906101000a900460ff16156109b9576040517f08c379a00000000000000000000000000000000000000000000000000000000081526004016109b0906117cc565b60405180910390fd5b6001600560146101000a81548160ff0219169083151502179055506000808154809291906109e690611b70565b91905055506040518061012001604052803373ffffffffffffffffffffffffffffffffffffffff1681526020018373ffffffffffffffffffffffffffffffffffffffff16815260200134815260200182815260200160001515815260200160001515815260200160001515815260200160001515815260200160001515815250600460008054815260200190815260200160002060008201518160000160006101000a81548173ffffffffffffffffffffffffffffffffffffffff021916908373ffffffffffffffffffffffffffffffffffffffff16021790555060208201518160010160006101000a81548173ffffffffffffffffffffffffffffffffffffffff021916908373ffffffffffffffffffffffffffffffffffffffff160217905550604082015181600201556060820151816003015560808201518160040160006101000a81548160ff02191690831515021790555060a08201518160040160016101000a81548160ff02191690831515021790555060c08201518160040160026101000a81548160ff02191690831515021790555060e08201518160040160036101000a81548160ff0219169083151502179055506101008201518160040160046101000a81548160ff0219169083151502179055509050506000548273ffffffffffffffffffffffffffffffffffffffff163373ffffffffffffffffffffffffffffffffffffffff167fa746868d6453f8bae4369a738168c9b369a52f877ee08ab4c0dd0448b903d37f60405160405180910390a46000600560146101000a81548160ff0219169083151502179055505050565b60035481565b7f000000000000000000000000000000000000000000000000000000000000000081565b6004600082815260200190815260200160002060010160009054906101000a900473ffffffffffffffffffffffffffffffffffffffff1673ffffffffffffffffffffffffffffffffffffffff163373ffffffffffffffffffffffffffffffffffffffff1614610d0a576040517f08c379a0000000000000000000000000000000000000000000000000000000008152600401610d0190611c04565b60405180910390fd5b6004600082815260200190815260200160002060040160019054906101000a900460ff1615610d6e576040517f08c379a0000000000000000000000000000000000000000000000000000000008152600401610d6590611c70565b60405180910390fd5b6004600082815260200190815260200160002060040160029054906101000a900460ff1615610dd2576040517f08c379a0000000000000000000000000000000000000000000000000000000008152600401610dc990611cdc565b60405180910390fd5b60016004600083815260200190815260200160002060040160016101000a81548160ff02191690831515021790555042600460008381526020019081526020016000206003015410610e4e5760016004600083815260200190815260200160002060040160006101000a81548160ff0219169083151502179055505b50565b600560009054906101000a900473ffffffffffffffffffffffffffffffffffffffff1673ffffffffffffffffffffffffffffffffffffffff163373ffffffffffffffffffffffffffffffffffffffff1614610ee1576040517f08c379a0000000000000000000000000000000000000000000000000000000008152600401610ed890611d48565b60405180910390fd5b600560149054906101000a900460ff1615610f31576040517f08c379a0000000000000000000000000000000000000000000000000000000008152600401610f28906117cc565b60405180910390fd5b6001600560146101000a81548160ff0219169083151502179055506000600560009054906101000a900473ffffffffffffffffffffffffffffffffffffffff1673ffffffffffffffffffffffffffffffffffffffff166108fc6001549081150290604051600060405180830381858888f19350505050905080610fb757610fb6611991565b5b506000600560146101000a81548160ff021916908315150217905550565b600560149054906101000a900460ff1615611025576040517f08c379a000000000000000000000000000000000000000000000000000000000815260040161101c906117cc565b60405180910390fd5b6001600560146101000a81548160ff0219169083151502179055506004600082815260200190815260200160002060000160009054906101000a900473ffffffffffffffffffffffffffffffffffffffff1673ffffffffffffffffffffffffffffffffffffffff163373ffffffffffffffffffffffffffffffffffffffff16146110e4576040517f08c379a00000000000000000000000000000000000000000000000000000000081526004016110db90611db4565b60405180910390fd5b6004600082815260200190815260200160002060040160019054906101000a900460ff16611147576040517f08c379a000000000000000000000000000000000000000000000000000000000815260040161113e90611e20565b60405180910390fd5b60008060006004600085815260200190815260200160002060040160009054906101000a900460ff16611320577f00000000000000000000000000000000000000000000000000000000000000006003547f00000000000000000000000000000000000000000000000000000000000000006111c39190611887565b60046000878152602001908152602001600020600201546111e491906118bb565b6111ee919061192c565b90507f00000000000000000000000000000000000000000000000000000000000000006002547f000000000000000000000000000000000000000000000000000000000000000061123f9190611887565b600460008781526020019081526020016000206002015461126091906118bb565b61126a919061192c565b91508060025460046000878152602001908152602001600020600201546112919190611887565b61129b9190611887565b925060006004600086815260200190815260200160002060000160009054906101000a900473ffffffffffffffffffffffffffffffffffffffff1673ffffffffffffffffffffffffffffffffffffffff166108fc839081150290604051600060405180830381858888f1935050505090508061131a57611319611991565b5b506113c7565b7f00000000000000000000000000000000000000000000000000000000000000006002547f000000000000000000000000000000000000000000000000000000000000000061136f9190611887565b600460008781526020019081526020016000206002015461139091906118bb565b61139a919061192c565b60028190555060025460046000868152602001908152602001600020600201546113c49190611887565b92505b600254600160008282546113db919061195d565b9250508190555060006004600086815260200190815260200160002060010160009054906101000a900473ffffffffffffffffffffffffffffffffffffffff1673ffffffffffffffffffffffffffffffffffffffff166108fc859081150290604051600060405180830381858888f1935050505090508061145f5761145e611991565b5b846004600087815260200190815260200160002060010160009054906101000a900473ffffffffffffffffffffffffffffffffffffffff1673ffffffffffffffffffffffffffffffffffffffff166004600088815260200190815260200160002060000160009054906101000a900473ffffffffffffffffffffffffffffffffffffffff1673ffffffffffffffffffffffffffffffffffffffff167f4e8e7ab56f1bc461da9852ce9d05a68f81b1646656abb2a431694127962c138860405160405180910390a4505050506000600560146101000a81548160ff02191690831515021790555050565b6000819050919050565b61155b81611548565b82525050565b60006020820190506115766000830184611552565b92915050565b600080fd5b61158a81611548565b811461159557600080fd5b50565b6000813590506115a781611581565b92915050565b6000602082840312156115c3576115c261157c565b5b60006115d184828501611598565b91505092915050565b600073ffffffffffffffffffffffffffffffffffffffff82169050919050565b6000611605826115da565b9050919050565b611615816115fa565b82525050565b60008115159050919050565b6116308161161b565b82525050565b60006101208201905061164c600083018c61160c565b611659602083018b61160c565b611666604083018a611552565b6116736060830189611552565b6116806080830188611627565b61168d60a0830187611627565b61169a60c0830186611627565b6116a760e0830185611627565b6116b5610100830184611627565b9a9950505050505050505050565b600080604083850312156116da576116d961157c565b5b60006116e885828601611598565b92505060206116f985828601611598565b9150509250929050565b61170c816115fa565b811461171757600080fd5b50565b60008135905061172981611703565b92915050565b600080604083850312156117465761174561157c565b5b60006117548582860161171a565b925050602061176585828601611598565b9150509250929050565b600082825260208201905092915050565b7f4e6f6e207265656e7472616e7400000000000000000000000000000000000000600082015250565b60006117b6600d8361176f565b91506117c182611780565b602082019050919050565b600060208201905081810360008301526117e5816117a9565b9050919050565b7f416c726561647920706179656400000000000000000000000000000000000000600082015250565b6000611822600d8361176f565b915061182d826117ec565b602082019050919050565b6000602082019050818103600083015261185181611815565b9050919050565b7f4e487b7100000000000000000000000000000000000000000000000000000000600052601160045260246000fd5b600061189282611548565b915061189d83611548565b92508282039050818111156118b5576118b4611858565b5b92915050565b60006118c682611548565b91506118d183611548565b92508282026118df81611548565b915082820484148315176118f6576118f5611858565b5b5092915050565b7f4e487b7100000000000000000000000000000000000000000000000000000000600052601260045260246000fd5b600061193782611548565b915061194283611548565b925082611952576119516118fd565b5b828204905092915050565b600061196882611548565b915061197383611548565b925082820190508082111561198b5761198a611858565b5b92915050565b7f4e487b7100000000000000000000000000000000000000000000000000000000600052600160045260246000fd5b7f75736572206e6f74207265636f676e6973656400000000000000000000000000600082015250565b60006119f660138361176f565b9150611a01826119c0565b602082019050919050565b60006020820190508181036000830152611a25816119e9565b9050919050565b7f4f6e6c79204f776e65722063616e20657874656e640000000000000000000000600082015250565b6000611a6260158361176f565b9150611a6d82611a2c565b602082019050919050565b60006020820190508181036000830152611a9181611a55565b9050919050565b7f446561646c696e65206d75737420626520696e20746865206675747572650000600082015250565b6000611ace601e8361176f565b9150611ad982611a98565b602082019050919050565b60006020820190508181036000830152611afd81611ac1565b9050919050565b7f43616e206f6e6c7920657874656e6420646561646c696e650000000000000000600082015250565b6000611b3a60188361176f565b9150611b4582611b04565b602082019050919050565b60006020820190508181036000830152611b6981611b2d565b9050919050565b6000611b7b82611548565b91507fffffffffffffffffffffffffffffffffffffffffffffffffffffffffffffffff8203611bad57611bac611858565b5b600182019050919050565b7f4e6f7420417574686f7269736564000000000000000000000000000000000000600082015250565b6000611bee600e8361176f565b9150611bf982611bb8565b602082019050919050565b60006020820190508181036000830152611c1d81611be1565b9050919050565b7f4a6f6220616c726561647920636f6d706c657465640000000000000000000000600082015250565b6000611c5a60158361176f565b9150611c6582611c24565b602082019050919050565b60006020820190508181036000830152611c8981611c4d565b9050919050565b7f5061796d656e742073656e7420666f722074686973206a6f6200000000000000600082015250565b6000611cc660198361176f565b9150611cd182611c90565b602082019050919050565b60006020820190508181036000830152611cf581611cb9565b9050919050565b7f4f6e6c794f776e65720000000000000000000000000000000000000000000000600082015250565b6000611d3260098361176f565b9150611d3d82611cfc565b602082019050919050565b60006020820190508181036000830152611d6181611d25565b9050919050565b7f6f6e6c79204f776e6572206f6620746865206a6f620000000000000000000000600082015250565b6000611d9e60158361176f565b9150611da982611d68565b602082019050919050565b60006020820190508181036000830152611dcd81611d91565b9050919050565b7f4a6f62206e6f742066696e697368656400000000000000000000000000000000600082015250565b6000611e0a60108361176f565b9150611e1582611dd4565b602082019050919050565b60006020820190508181036000830152611e3981611dfd565b905091905056fea2646970667358221220e922011b624b78e33ce285bb5f4d125c6ba8ad99c150f0cbfa88eebd3f8137fa64736f6c63430008120033",
  "immutableReferences": {
    "33": [
      {
        "length": 32,
        "start": 1253
      },
      {
        "length": 32,
        "start": 1289
      },
      {
        "length": 32,
        "start": 3140
      },
      {
        "length": 32,
        "start": 4470
      },
      {
        "length": 32,
        "start": 4506
      },
      {
        "length": 32,
        "start": 4594
      },
      {
        "length": 32,
        "start": 4630
      },
      {
        "length": 32,
        "start": 4898
      },
      {
        "length": 32,
        "start": 4934
      }
    ]
  },
  "source": "pragma solidity 0.8.18;\n\ncontract Project {\n\n    struct Job {\n        address owner;\n        address dev;\n        uint256 paymentAmount;\n        uint256 deadline;\n        bool onTime;\n        bool completed;\n        bool payed;\n        bool owner_rejected;\n        bool dev_rejected;\n    }\n\n    uint256 public totalJobs;\n    uint256 public totalFees;\n    uint256 public platformFee = 50;\n    uint256 public lateFee = 100;\n    uint256 public immutable denominator = 1000;\n\n    mapping (uint256 => Job) public jobs;\n\n    address private owner;\n\n    event JobCreated(address indexed owner, address indexed dev, uint256 indexed job_id);\n    event JobFinished(address indexed owner, address indexed dev, uint256 indexed job_id);\n\n    bool private entered = false;\n\n    constructor() {\n        owner = msg.sender;\n    }\n\n    modifier onlyOwner {\n        require(msg.sender == owner, \"OnlyOwner\");\n        _;\n    }\n\n    modifier nonReentrant {\n        require(!entered, \"Non reentrant\");\n        entered = true;\n        _;\n        entered = false;\n    }\n\n    function createJob(address _dev, uint256 _deadline) public payable nonReentrant {\n        totalJobs ++;\n        jobs[totalJobs] = Job({\n            owner: msg.sender,\n            dev: _dev,\n            paymentAmount: msg.value,\n            deadline: _deadline,\n            onTime: false,\n            completed: false,\n            payed: false,\n            owner_rejected: false,\n            dev_rejected: false\n        });\n        emit JobCreated(msg.sender, _dev, totalJobs);\n    }\n\n    /// @dev Step 1:\n    function completeJob(uint256 _job) public {\n        require(msg.sender == jobs[_job].dev, \"Not Authorised\"); // check that dev sent tx\n        require(!jobs[_job].completed, \"Job already completed\"); // check that job isn't yet completed\n        require(!jobs[_job].payed, \"Payment sent for this job\"); // check that job wasn't payed out\n        jobs[_job].completed = true; // set that job was completed by dev\n        if (jobs[_job].deadline >= block.timestamp) { \n            jobs[_job].onTime = true; // if within deadline - onTime is true (avoid fees in step 2)\n        }\n    }\n\n    /// @dev Step 2:\n    function verifyCompletion(uint256 _job) public nonReentrant {\n        require(msg.sender == jobs[_job].owner, \"only Owner of the job\"); // check that owner sent tx\n        require(jobs[_job].completed, \"Job not finished\"); // check that dev has finished \n\n        uint256 payment; \n        uint256 platform; // local variables to store payment values\n        uint256 ownerFee;\n\n        if (!jobs[_job].onTime) { // if the job wasn't submitted on time - send money to dev - platform fee - lateFee\n            ownerFee = jobs[_job].paymentAmount * (denominator - lateFee) / denominator;\n            platform = jobs[_job].paymentAmount * (denominator - platformFee) / denominator;\n            payment = jobs[_job].paymentAmount - platformFee - ownerFee;\n            bool sentOwner = payable(jobs[_job].owner).send(ownerFee); // send late fee to owner\n            assert(sentOwner);\n        } else { // if on time - send money to dev - platform fee\n            platformFee = jobs[_job].paymentAmount * (denominator - platformFee) / denominator;\n            payment = jobs[_job].paymentAmount - platformFee;\n        }\n        totalFees += platformFee;\n        bool sentDev = payable(jobs[_job].dev).send(payment);\n        assert(sentDev); // verify that payment to dev was made\n        emit JobFinished(jobs[_job].owner, jobs[_job].dev, _job);\n    }\n\n    function cancelJob(uint256 _job) public nonReentrant {\n        require(!jobs[_job].payed, \"Already payed\"); // check that no payment was made\n        if (msg.sender == jobs[_job].owner) { // if owner called\n            jobs[_job].owner_rejected = true; // set in struct that owner has rejected the job\n            uint256 platform = jobs[_job].paymentAmount * (denominator - platformFee) / denominator; // calculate platform fee\n            totalFees += platform; // add platform fees to storage variable\n            jobs[_job].payed = true; // set that job was payed out\n            bool sentOwner = payable(jobs[_job].owner).send(jobs[_job].paymentAmount - platform); // send funds back to owner - platform fees\n            assert(sentOwner); // verify that call was successfull\n        } else if (msg.sender == jobs[_job].dev) { // id dev called\n            jobs[_job].dev_rejected = true; // set rejected by dev to true\n            jobs[_job].payed = true; // set that job was payed out\n            bool sent = payable(jobs[_job].owner).send(jobs[_job].paymentAmount); // send all funds to owner\n            assert(sent); // verify that call was successfull\n        } else {\n            revert(\"user not recognised\"); // if call was made by 3rd party - revert tx;\n        }\n    }\n\n    function extendDeadline(uint256 _deadline, uint256 _job) public {\n        require(msg.sender == jobs[_job].owner, \"Only Owner can extend\");\n        require(_deadline > block.timestamp, \"Deadline must be in the future\");\n        require(jobs[_job].deadline < _deadline, \"Can only extend deadline\");\n        jobs[_job].deadline = _deadline;\n    } \n\n    function collectFees() external onlyOwner nonReentrant {\n        bool sent = payable(owner).send(totalFees);\n        assert(sent);\n    }\n\n}",
  "sourcePath": "/Users/artemfrolov/Desktop/metacrafters/contracts/Metacrafters.sol",
  "compiler": {
    "name": "solc",
    "version": "0.8.18+commit.87f61d96.Emscripten.clang"
  },
  "schemaVersion": "3.4.7",
  "updatedAt": "2023-02-08T13:55:02.296Z",
  "devdoc": {
    "kind": "dev",
    "methods": {
      "completeJob(uint256)": {
        "details": "Step 1:"
      },
      "verifyCompletion(uint256)": {
        "details": "Step 2:"
      }
    },
    "version": 1
  },
  "userdoc": {
    "kind": "user",
    "methods": {},
    "version": 1
  }
}